:10000000011009003500000080310000FF000000F1
:100010000217FDE49002BCF0A3F022022A11E4F5DD
:10002000E3439F107F03FEFDFC123025439F027FB8
:10003000037E007D007C00123025539FEF75BE0EBD
:10004000E4F5BFF5B975927622FFFF0227B2781466
:10005000E2FE08E2FFD394F8EE942A5009C3EF942D
:1000600028EE9423500312275222FF02206ABB017C
:100070000689828A83E0225002E722BBFE02E32245
:1000800089828A83E49322BB010989828A83F8E00A
:1000900028F022500327F722BBFE05F8E328F322BD
:1000A0008A838982F8E4932822BB010689828A83A5
:1000B000F0225002F722BBFE01F322EF8DF0A4A83C
:1000C000F0CF8CF0A428CE8DF0A42EFE22C5F0F83F
:1000D000A3E028F0C5F0F8E582158270021583E0F0
:1000E00038F022BB0110E58229F582E5833AF583D9
:1000F000E0F5F0A3E0225009E92582F886F008E651
:1001000022BBFE0AE92582F8E2F5F008E222E58347
:100110002AF583E993F5F0A3E99322F8BB0111E5F1
:100120008229F582E5833AF583E8F0E5F0A3F02231
:100130005009E92582C8F608A6F022BBFE09E92588
:1001400082C8F2E5F008F222EF2BFFEE3AFEED391D
:10015000FDEC38FC22C3EF9BFFEE9AFEED99FDEC1F
:1001600098FC22E88FF0A4CC8BF0A42CFCE98EF054
:10017000A42CFC8AF0EDA42CFCEA8EF0A4CDA8F00F
:100180008BF0A42DCC3825F0FDE98FF0A42CCD35D3
:10019000F0FCEB8EF0A4FEA9F0EB8FF0A4CFC5F03D
:1001A0002ECD39FEE43CFCEAA42DCE35F0FDE43C36
:1001B000FC2275F008758200EF2FFFEE33FECD3381
:1001C000CDCC33CCC58233C5829BED9AEC99E582C8
:1001D00098400CF582EE9BFEED9AFDEC99FC0FD554
:1001E000F0D6E4CEFBE4CDFAE4CCF9A88222B80044
:1001F000C1B90059BA002DEC8BF084CFCECDFCE50F
:10020000F0CBF97818EF2FFFEE33FEED33FDEC3332
:10021000FCEB33FB10D703994004EB99FB0FD8E5B7
:10022000E4F9FA227818EF2FFFEE33FEED33FDEC00
:1002300033FCC933C910D7059BE99A4007EC9BFCF6
:10024000E99AF90FD8E0E4C9FAE4CCFB2275F01082
:10025000EF2FFFEE33FEED33FDCC33CCC833C810A7
:10026000D7079BEC9AE899400AED9BFDEC9AFCE8D5
:1002700099F80FD5F0DAE4CDFBE4CCFAE4C8F92222
:10028000EB9FF5F0EA9E42F0E99D42F0EC6480C8F5
:1002900064809845F022EB9FF5F0EA9E42F0E99DDC
:1002A00042F0E89C45F022E8600FECC313FCED132C
:1002B000FDEE13FEEF13FFD8F122E8600FEFC3331A
:1002C000FFEE33FEED33FDEC33FCD8F122BB010D24
:1002D000E58229F582E5833AF58302032B5007E98D
:1002E0002582F802044DBBFE07E92582F802033798
:1002F000E58229F582E5833AF583020459BB0107BB
:1003000089828A830203B15005E9F8020486BBFEA4
:1003100005E9F80203BD22BB010DE58229F582E55E
:10032000833AF5830203B15007E92582F802048677
:10033000BBFE07E92582F80203BD22E0FCA3E0FD35
:10034000A3E0FEA3E0FF22E2FC08E2FD08E2FE08D3
:10035000E2FF22E0F8A3E0F9A3E0FAA3E0FB22E247
:10036000FB08E2F908E2FA08E2CBF822BB010789B0
:10037000828A830203435005E9F8020469BBFE0543
:10038000E9F802034F89828A830204767401FF33FD
:1003900095E0FEFDFCA3A3A3E0CF2FF0E58215823C
:1003A00070021583E0CE3EF0E5821582700215835F
:1003B000E0CD3DF0E582158270021583E0CC3CF083
:1003C00022ECF0A3EDF0A3EEF0A3EFF022ECF208A4
:1003D000EDF208EEF208EFF222A8828583F0D083D6
:1003E000D0821203E01203E01203E01203E0E47390
:1003F000E493A3C583C5F0C583C8C582C8F0A3C56F
:1004000083C5F0C583C8C582C822D083D082E49357
:10041000F208740193F208740293F208740393F2E1
:10042000740473A42582F582E5F03583F58322FAFE
:10043000E6FB0808E6F925F0F618E6CA3AF622E0E7
:10044000FBA3E0FAA3E0F922EBF0A3EAF0A3E9F0C2
:1004500022E493FB740193FA740293F922E6FC08F8
:10046000E6FD08E6FE08E6FF22E493FC740193FD36
:10047000740293FE740393FF22E6FB08E6F908E694
:10048000FA08E6CBF822E493F8740193F974029326
:10049000FA740393FB22ECF608EDF608EEF608EF8B
:1004A000F62290028AEFF0121200E0FEA3E0FF7540
:1004B000F002ED9000BE1211431230AFD3EF94C89A
:1004C000EE9400400890028B7401F08014D3EF94F6
:1004D00064EE940090028B40057402F08003740374
:1004E000F090028AE075F004A424D0F9740035F08D
:1004F000FA7B011210FB90028BE090029CF0122913
:100500001790028AE0121200EEF0A3EFF0ED75F002
:1005100004A42441F9740135F0FA7B0190028A1297
:1005200010FB90029C7406F012291790028AE0904A
:100530000131121204EEF0A3EFF090028D1203C904
:1005400000000000E490028BF090028D12032BC09B
:1005500004C005C006C00790028AE0FD75F0149043
:1005600000E0120413C083C08290028BE0D082D0DE
:1005700083121204E0FEA3E0FFED12113D1230AF32
:10058000AB07AA06E4F9F8D007D006D005D00412CC
:10059000013890028D1203B190028BE004F0E0C3A9
:1005A000940A40A590028D12032B90028A1211BA70
:1005B0001203B190024CE07002A3E0703A90013057
:1005C000E075F00A84E5F0F0E4FFEF12113D75F0FC
:1005D00014EF9000E0120413C083C082900130E059
:1005E000D082D083121204ECF0A3EDF00FEFB4042C
:1005F000D9900130E004F0301F030206D19002468A
:10060000E07002A3E060030206D190023BE07002BA
:10061000A3E060030206D17816E2FE08E2FFC3946D
:10062000A0EE940F501890313A74019324CEFDE45B
:100630009334FFFCD3EF9DEE9C40030206D1900261
:100640008AE0640360030206D19002911203C9FF9D
:10065000FFFFFFE490028CF090028BF090028BE0A1
:10066000FFC39404503375F004EF90016312041338
:1006700012032B900291120343D312028640129070
:10068000028BE0A3F01211BB12032B900291120314
:10069000B190028BE004F080C39001C01211BA1235
:1006A000032BE47B1E121285503790028CE09001E0
:1006B000C0F0A3E09001391210FF9001BC1211B4F8
:1006C000C006C0079001C0E075F002900139120425
:1006D00013121228D007D0061201459001BC120354
:1006E000B190028AE0B403169001C0E075F00212E6
:1006F00012A8E0FFA3E09000C6CFF0A3EFF09001B6
:10070000BC12032B9000C7E02FFF9000C6E03E9084
:100710000161F0A3EFF09001C0E0A3F090028AE045
:10072000FF90013112114075F002EF90013912046F
:1007300013ECF0A3EDF0120765900225E07004A31E
:10074000E06403701712076512111B7A01797312A6
:100750002BB212111B7A017973122BB27B017A0131
:1007600079737D1C1221EEAF41AE40AD3FAC3E909F
:1007700001AC0203B17B017A0179AB9002981204BB
:100780003890029B741CF0900161E0FFA3E090029E
:100790009CCFF0A3EFF07A017973122BB222E49090
:1007A00002A2F0EF7003020947122F8E9001B812D7
:1007B00003C900000000E49002A3F09002A8120315
:1007C000C9000000009002A3E0FF122B3A1219CCDE
:1007D0009002A41203B1E49002A1F09002A41203CB
:1007E0002B9002A3E075F00C900079120413C083E3
:1007F000C0829002A1E0D082D08375F0041204136D
:100800001203B11219E9E0B403D1785C9002A4128A
:1008100019BB9002A41203B19002A3E0FF9000BEA6
:100820001219239000C81219229001311219227551
:10083000F002EF90013912192675F004EF9000D004
:100840001204131203C9009C40009002A3E0FB7540
:10085000F0049001411204131203C9009C400012DD
:10086000196475F004EB9001511204131203B1E402
:100870009002A1F09002A1E0FFC3940A50159002EB
:10088000A3E075F0149000E012041312192212195B
:10089000E980E19002A81203431219641201389012
:1008A00002A81203B19002A3E004F0C39404500321
:1008B0000207B59001611219299000C612192990FA
:1008C0000161E0FEA3E0FF9002A2E075F00290015A
:1008D00073120413EEF0A3EFF09001B812034390EB
:1008E0000161E0FEA3E0FFE4FCFD1201389001B8D5
:1008F0001203B19002A2E004F0C3941C500302075B
:10090000A61219F39001AC1219F09001B01219F06F
:1009100078061202AA9001B41203B1E49001C0F06B
:10092000A3F0A3F09001BC1203C900000000E49002
:1009300002A1F09002A1E0FFC39405500F75F002F0
:10094000EF9001C51219261219E980E79001D01223
:100950001929E49002D9F09001AC12196790006A4D
:100960001203B19000701203C900000000E490006F
:1009700076F0A3F078147427F2087410F2781274E9
:1009800027F2087410F2E47816F208F290021BF0D5
:10099000A3F09001C3121929E49001D2F0A3F0A3AF
:1009A000121929A31203C90009C4009001DA12190F
:1009B00029A31203C90009C4009001E0121929A358
:1009C0001203C90009C4009001E6740AF09001F610
:1009D0001219299002171203C9000000009001F4B7
:1009E0001219299001F81203C900000000E49002D6
:1009F000A1F09002A1E0FB75F0049001FC12041339
:100A00001203C90000000075F002EB9001E7121913
:100A1000261219E9E0B406DAE490024EF0A3F0A33E
:100A2000F0A3F0900268F0A3F0A3F0A3F0900215F9
:100A3000F0A3F022900281EEF0A3EFF0A3ECF0A37C
:100A4000EDF01211D94012900283E0FFA3E0900272
:100A500087CFF0A3EFF0020C3790005CE0900285A6
:100A6000120C4090028B121183120C40900289EEFE
:100A7000F0A3EFF09001F3E0900285F075F00290A2
:100A800001E7121143120C7F90028F121183F0754F
:100A9000F0029001E7121143120C7F90028DEEF0EC
:100AA000A3EFF0900214E090028512115A9002997F
:100AB0001203B112118812115A9002951203B190CB
:100AC0000283121105C006C0079001F4121228D04B
:100AD00007D0061201459002911203B120002CD3D9
:100AE0007817E294A018E2940F502090021EE06064
:100AF0001A900265E09400900264E09400500C307B
:100B00000209900271E07003020BFF900246E07050
:100B100002A3E06003020BFF90023BE07002A3E03F
:100B20006003020BFFD3900261E09400900260E04A
:100B3000940040028019D390022EE0940090022D80
:100B4000E094004007900254740F80083000089031
:100B500002547408F080243016099002547402F094
:100B6000E48018900215E0900254B4010A7403F076
:100B700090028614F080087401F0E4900286F0750B
:100B8000F0961211984003020BD2900254E0FD75CA
:100B9000F08212119C5006ED1212334069900286C9
:100BA000E02408FFE433FEC390028CE09F90028BA8
:100BB000E09E40141211AB9001F81203B17F0E12A7
:100BC0002E2E900248020BEFD3900249E094009041
:100BD0000248E094004003020BF675F0821211986F
:100BE000400B1212AE900295120C5D8012900254CE
:100BF000E012123340191212AE900299120C5DEEFF
:100C0000F0A3EFF080091211AB9001F81203B1903C
:100C1000022DE07004A3E0640170031227529002D9
:100C2000831211059001F812034312014512281294
:100C3000900287EEF0A3EFF0A3E0FEA3E0FFA3E0B5
:100C4000FCA3E0FD122131900287E0FEA3E0FF2229
:100C5000F025E02450F582E43400F583E0FCA3E0C5
:100C6000FD900281E0FEA3E0FF1230AF22120343A9
:100C70001201459001F81203B17F0D122E2E900241
:100C800046EEF0A3EFF07F18122E2E90026A22900B
:100C90000283E0FEA3E0FF1230AF2290021DE0903D
:100CA0000222F01224A250051224B04007E4900260
:100CB0001DF08008122AFA90021DEFF01224E6407F
:100CC00003020EB790021DE0FF122BEBEF700D1226
:100CD00024A250081224B05003020EB790021EE066
:100CE0007058900271F090026DF0A3F0900063F0E4
:100CF000A3F0900268F0A3F0C21EC21212250A12DD
:100D0000003E7F01122E2ED3900230E0940090021C
:100D10002FE09400401E30140DEF7803CEC313CEA5
:100D200013D8F9FF800EEEC4F854F0C868FEEFC483
:100D3000540F48FF12159D020E2E900063E07002C2
:100D4000A3E070139000631224C07F17122E2E9020
:100D50000268EEF0A3EFF0900268E07004A3E06494
:100D6000017030900063E0FEA3E0FF2496FDE43EB6
:100D7000FC7808E2FA08E2FBD39DEA9C4004D21E0C
:100D80008011EF246AFFEE34FFFEC3EB9FEA9E5012
:100D900002D212301E3F122492D39DEE9C500302C9
:100DA0000E2E120EB84003020E2E7F14122E2EEFBE
:100DB0007802CEC313CE13D8F91224F47F15122E65
:100DC0002E7C007D031200AB900260EEF0A3EFF0EA
:100DD000C21E020E2E301224122492D39DEE9C408D
:100DE0005D120EB850587F14122E2EEF7802CEC32B
:100DF00013CE13D8F91224F4C212804230163F12D7
:100E00002492D39DEE9C40361230AF1224FE502E19
:100E10001224997816E2FC08E2FD1230AFAA06AB64
:100E2000071224997C007D031200ABEF7802CEC339
:100E300013CE13D8F9C39BEE9A5003122752900297
:100E40005EE07004A3E06401700312275290021E5A
:100E5000E0FFA3E06F603E122AAE7F19122E2E90A3
:100E6000026FEEF0A3EFF0900220E030E421D31205
:100E700024B050051224A34009E4900235F0A3F0F9
:100E8000800D7F07122E2E900235EEF0A3EFF0902A
:100E9000021EE0A3F090021EE0602C90026FE07052
:100EA00004A3E0640170207816E2FE08E290026D6F
:100EB0001224F7C394D0EE94075007900271740186
:100EC000F022E4900271F0221230AFAC06AD079030
:100ED000021BE0C313FEA3E013C39DEE9C2290020D
:100EE00023E475F0011200BDD3900228E094009035
:100EF0000227E094004003122F48D390022AE09486
:100F000000900229E094004003122F48D39002651C
:100F1000E09400900264E094004003122F48D390C4
:100F2000022CE0940090022BE094004003122F4822
:100F3000D390022EE0940090022DE0940040031222
:100F40002F48D3900234E09400900233E0940040A4
:100F50000F122F48900233E07002A3E07002D2100B
:100F6000D3900232E09400900231E09400400312EA
:100F70002F48D3900230E0940090022FE09400407C
:100F800003122F4890021DE030E011E4900235F08A
:100F9000A3F0A3F0A3F0A3F0A3F08042D390023615
:100FA000E09400900235E09400401A122F4890021D
:100FB00035E07002A3E0700D7F0B122E2E900239E7
:100FC000EEF0A3EFF0D390023AE09400900239E003
:100FD0009400400A900237E475F0011200BDD390EE
:100FE000023EE0940090023DE094004003122F483E
:100FF000D3900247E09400900246E0940040031230
:101000002F48D3900249E09400900248E0940040B9
:1010100003122F48D390024BE0940090024AE094D0
:10102000004003122F48D390024DE0940090024CF0
:10103000E094004005122F48800D7F10122E2E9054
:10104000024CEEF0A3EFF0D390024FE09400900238
:101050004EE094004003122F48D3900251E09400D8
:10106000900250E094004003122F48D3900253E0C6
:101070009400900252E094004003122F48D3900253
:1010800061E09400900260E094004003122F48D386
:1010900090025FE0940090025EE094004003122F03
:1010A00048D3900263E09400900262E09400400311
:1010B000122F48D3900269E09400900268E09400F7
:1010C0004003122F48D390026BE0940090026AE034
:1010D00094004003122F48D390023CE09400900209
:1010E0003BE094004003122F48D3900270E094003C
:1010F00090026FE094004003122F482274FF900288
:1011000085FEFDFC120343D3020270E09000BE7521
:10111000F002120413E0FEA3E0FFE4FCFD22E47FF2
:10112000E87E03FDFC1203430201537B017A01793F
:10113000AB90029812043890029B741CF0900161ED
:10114000E0FFA3E090029CCFF0A3EFF0229000C854
:1011500075F002120413E0FCA3E0FD2290005CE0B5
:10116000245DF582E43400F58322F075F0049001EB
:10117000FC1204131203439001F812032B020145E1
:10118000900280E075F00CA42479F9740035F0FA2F
:101190007B0122EEF0A3EFF0900285E02403F0E063
:1011A00075F00684AFF0EF22900254E0A4FFC390E4
:1011B000028EE09F90028DE095F0229001F81203DC
:1011C0002B900291120343020138E090016375F005
:1011D000040204139002A41203B190029C12034370
:1011E0009002A412032B0201DED390022AE09400A5
:1011F000900229E094002290029812042F02005ECF
:10120000FFE4FCFDFE12034F120153780702029720
:10121000FD9000C875F0020204137B019002981241
:10122000043890029B2224FFFFEE34FFFE3395E04A
:10123000FDFC12035C020153E0FEA3E0FBAA06E4FE
:10124000F9F82275F0C8A4FFC3900290E09F9002C5
:101250008FE095F02212042F740102007775F004DC
:10126000A4F58285F0832290028A12043890028DC0
:101270007403F0221202978F278E268D258C24224C
:101280001202978F278E268D258C2422785CE6FF0C
:10129000E4FCFDFE22FAF9F8C3020286E0FF7401C5
:1012A0007E00A80708221203B19002A002032B12AD
:1012B000033790028E0203B19000BE020413900126
:1012C000F802032B900281EEF0A3EFF07B017A018C
:1012D00079D69002811211059002917405F01228BE
:1012E000C29001D4EEF0A3EFF0900225E07004A3C9
:1012F000E064037B017A0179DC90028170081211AD
:101300000590029180081211059002917404F01268
:1013100028C29001DAEEF0A3EFF01211D94002805A
:10132000339001C3121105C006C0079001D41212F8
:1013300028D007D0061201459002851203B1E47F40
:10134000FA1210EE40069002890213A1E47FB41253
:1013500010EE40099002897405F00213A4E47F6442
:101360001210EE4002802274FF7FF1FEFDFC90021D
:1013700085120343C31202704008900289740AF078
:1013800080327F9C1210EC40089002897408F08033
:10139000237F4C1210EC40089002897406F08014F0
:1013A00074FF7F061210EE90028940057404F080ED
:1013B000037402F0900289E09001E6F09001DA12E5
:1013C0001105900289E0900291F07B017A0179E2A7
:1013D0001228C2900283EEF0A3EFF090024AE07070
:1013E00002A3E060030214577F0F122E2EEEC313E8
:1013F000FEEF13FF90024AEEF0A3EFF07A00795C63
:1014000012120A7406F07808E2FF08E2A3CFF0A3F4
:10141000EFF07A007950122BB27B017A0179F31246
:10142000120C7406F09002831211307A0179E712DF
:101430002BB27B017A02791490028D12043890024B
:10144000907406F01212AE9002911203B17A0179F3
:10145000FC122C5B7816E2FF08E290021BCFF0A38F
:10146000EFF012114CE4F0900283E0FEA3E0FF22C3
:10147000E4900281F07B017A00793D1212577800E6
:1014800012129F7A007931122C247B017A00793173
:101490001215817B3212128550069002817401F080
:1014A0009002D9E0900280F0E4900282F012117074
:1014B000C002C0017A0079A9121257780A12129F4D
:1014C000D001D002122C241211701215817BF47AF3
:1014D0000112128650069002827401F0300045908D
:1014E0000281E07004A3E0603BD21A7B017A0079AC
:1014F0003112154F785B12127E900283121115780B
:101500000712029778041203BD12117012154F12C0
:10151000127C9002831211157807120297780E122E
:1015200003BD8038C21A785BE678001211F07804A7
:101530001203BD7804120337EC4D4E4F70037F0247
:1015400022785CE6780A1211F0780E1203BD780E4C
:10155000120337EC4D4E4F70037F02227F04227D31
:1015600003121D23C3E5419539FFE5409538FEE59B
:101570003F9537FDE53E9536FCC3EF953DFFEE9573
:101580003CFEED953BFDEC953AFC9002831203B1D5
:10159000227D03121D23C3E539953DFFE538953CB7
:1015A000FEE537953BFDE536953AFCE42290028056
:1015B000EEF0A3EFF0E4A3F0D3900236E0940090B5
:1015C0000235E0940040061224BD02169E1224A2A9
:1015D00050051224B0402F9001D2E0FEA3E0FF900E
:1015E00001C3E0FCA3E0FDD39FEC9E40089001D234
:1015F000ECF0A3EDF09001D2E0FFA3E07814CFF27D
:1016000008EFF20216A4900070120343C000781293
:10161000E2FE08E2FFE4FCFDD00012013890007009
:101620001203B1900076E475F0011200BD900280C3
:10163000E0FEA3E0FFC3900077E09F900076E09E7D
:101640005031780890004A1224CC1230AFD3EF9476
:1016500014EE9400501DA215301401B340159002F1
:1016600039E0FEA3E0FFD3900238E09F900237E01C
:101670009E404190026AE07002A3E07037900076CD
:10168000E0FEA3E0FFFBAA06E4F9F8900070120365
:101690002B1201DE1224E6400E7815E22FFF18E22D
:1016A0003EC313FEEF13FF7814EEF208EFF2900240
:1016B000827401F0900282E06028E4900076F0A34A
:1016C000F09000701203C900000000E49001D2F015
:1016D000A3F01224BDE4900240F0A3F09002371270
:1016E000248A2290028A1203B11211D9405E90021C
:1016F0008A12032B90003E1203B1E47F5AFEFDFCD8
:1017000090003E121115780A1202979000421203BF
:10171000B1E4900293F0900293E0FFC39404502C44
:1017200075F00CEF900081120413120343C00012F5
:10173000127CD0001211F8900293E09000AA1211CE
:10174000BE1203B1900293E004F080CA9000BA1276
:1017500003C90000000090004212034390003E12B3
:10176000116AC004C005C006C007900042120343BE
:1017700090028A12116A90029C1203B19002A01288
:1017800003C900010000D007D006D005D004122202
:10179000A39000461203B19000BA12034390028E48
:1017A00012116AC004C005C006C00790029C120353
:1017B000C90001000090004612032B9002A0120302
:1017C000B1D007D006D005D0041222A39002941203
:1017D00003B19000BA12032BAB07AA069002941231
:1017E000032BEF2BFBEE3AFA900292E0F975F0042E
:1017F00090015112041312032BC3EB9FFFEA9EFECC
:1018000075F002E91212A8EEF0A3EFF022439F0454
:10181000E453C6DFE5C600B5C6F3758300758207DD
:1018200075FD0DE4E5FEF4FF75830075820675FD18
:101830000DE4E5FEB50704F59E8003759E00781063
:101840000000D8FC53C6E043C60843C6807596071F
:1018500075970975830075820475FD0DE5FD040417
:10186000F58F75830075820375FD0DE4E5FEF4FFC9
:1018700075830075820275FD0DE4E5FEB50704F57C
:1018800095800375958375BE0E5392FE9001007F7F
:10189000007E02E4F0A3DFFCDEFA78007F00E4F2D1
:1018A00008DFFC78FFE4F6D8FD7581C50218DD027B
:1018B000000002234DE493A3F8E493A34003F680D1
:1018C00001F208DFF48029E493A3F85407240CC83C
:1018D000C333C4540F4420C8834004F456800146E7
:1018E000F6DFE4800B01020408102040809030995C
:1018F000E47E019360BCA3FF543F30E509541FFE12
:10190000E493A360010ECF54C025E060A840B8E482
:1019100093A3FAE493A3F8E493A3C8C582C8CAC505
:1019200083CAF0A3C8C582C8CAC583CADFE9DEE797
:1019300080BEEF75F0021204137427F0A37410F048
:10194000221201539002801203B190025A120343F3
:1019500090028012032B1201DE7808120297900287
:10196000801203B17F0FE4FEFDFC9002801203435E
:10197000D30202869002A412032BEF24F0FFEE3470
:10198000D8FEED34FFFDEC34FFFC2290001BE0900C
:101990003131932290028012032BC3EF940FFFEE9C
:1019A0009400FEED9400FDEC9400FC900280020394
:1019B000B175BBFF75A9A075AC0375ADC075AEC0A0
:1019C00022E5BAF053BA0F43BA1022E6FFE4FCFD59
:1019D000FE1203431201537807020297122E5D9004
:1019E000001BE0FF0226F0900069E042F422EEF0D6
:1019F000A3EFF090028202032B9002A1E004F022F8
:101A00001203B19001B802032B900069E0FFF45279
:101A1000F4EF428022E0F5B3A3E0F5B2A3E0F5B124
:101A20002290001AE090313193F5AB2275BF0F433D
:101A3000B92053B9FD2290028512032B9002812216
:101A400090028512032B9002812220CA03021B3EC2
:101A5000E5467003021B3EE4FF74462FF8E6FE7471
:101A60004B2FF8A60674462FF8E4F60FEFB405E9FD
:101A7000E4900280F0900280E0FFC39405400302EE
:101A80001B3E744B2FF8E6FF7003021B3EEF54F031
:101A9000FEEF540F900281F0E4F6AF06EF24A06051
:101AA0002424F0602924D0603C24E07003021B272A
:101AB00024E07003021B2C24906003021B3578582D
:101AC000E6440180057858E654FEF6021B22E4FF46
:101AD00012303D785AEFF67856BFFF057609021BA3
:101AE0003576FF8060900281E0FD700B7858E6301B
:101AF000E253122FB9803BEDB4010B7858E620E297
:101B000044122FC4802C900281E0FDB40211785859
:101B1000E630E231122FB990026C7401F08013EDBF
:101B2000640370217858E620E21B122FC4E490026F
:101B30006CF0751C02800E1227528009E490022975
:101B4000F0A3F0D21F900280E004F0021A65223068
:101B5000111512314B745AF07F0A122E2E90023159
:101B6000EEF0A3EFF0C211A2149215300202802011
:101B7000D390022AE09400900229E0940050119042
:101B80000232E09400900231E09400500320100AE9
:101B900012314B745AF0C214800812314B7403F0A6
:101BA000D21430141890026CE0B401047F01800755
:101BB00090026CE07004FF122DFC122FCFA21530A2
:101BC0001401B3502890021EE06012D2167812E27F
:101BD000FF08E2900255CFF0A3EFF080107F0212D1
:101BE0002E2E90022FEEF0A3EFF0122752201417A2
:101BF0003015147F03122E2EEEC313FEEF13FF9049
:101C00000264EEF0A3EFF07812E2FE08E2FF900229
:101C100055E0FCA3E0FDD39FEC9E4012ED9FFFEC4E
:101C20009EFED3EF94DCEE940540031227529002FF
:101C30001EE0700F301603122752C216E4900255B0
:101C4000F0A3F022E49002A2F0EF607B122F8E90BE
:101C500000291203C900000000122E5D9000291215
:101C600026E81201389000291203B19002A2E00484
:101C7000F0C3941C40E3E0FFFBE4FAF9F89000297C
:101C800012032B1201DE9002A31203B1785B9002C3
:101C9000A31219BB78041203BDE49002A1F09002D4
:101CA000A1E0FBC39403501F9002A312032BEB256A
:101CB000E025E02431F582E43400F5831203B1908D
:101CC00002A1E004F080D77804120337EF24D0FF9C
:101CD000EE348A1219719000251203B190004A74F3
:101CE00075F0A37430F0A31203C9001D4C00E490FA
:101CF00002A1F09002A1E0FFC394065027EF25E077
:101D00002450F582E43400F5837475F0A37430F048
:101D1000745D2FF582E43400F583E4F09002A1E0D5
:101D200004F080CFE490005CF078087475F20874D9
:101D300030F22290028712043890028AEDF0E4F526
:101D400028F527F526F52574FFF52CF52BF52AF552
:101D500029E4F530F52FF52EF52DF52490028AE0D3
:101D6000FFE524C39F507090028712042F75F00482
:101D7000E524A4F58285F0831202BD8F348E338D65
:101D8000328C31AF28AE27AD26AC25D3122F61405F
:101D90000C853428853327853226853125AF2CAE36
:101DA0002BAD2AAC29C3122F61500C85342C8533FE
:101DB0002B85322A853129E5302534FFE52F35334F
:101DC000FEE52E3532FDE52D35318F308E2F8D2EEF
:101DD000F52D0524021D4C852839852738852637A1
:101DE000852536852C3D852B3C852A3B85293A85E2
:101DF0003041852F40852E3F852D3E90028AAF30A1
:101E0000AE2FAD2EAC2D122F4F227B077A079002FA
:101E1000811203C900000000122F8EEB601A7401BA
:101E20007E00A803088005C333CE33CED8F9FFADBA
:101E3000ACEF5D70031B80E3EA601A74017E00A8BA
:101E400002088005C333CE33CED8F9FFADAEEF5DC7
:101E500070031A80E3AF037401A807088002C3333C
:101E6000D8FCF5AC7401A802088002C333D8FCFF8B
:101E7000F5AD8FAE53AACF43AA049002801219B1D8
:101E800012197B42AB1219CC9002851203B1121ABF
:101E900030120343C31202865006121A301203B1E5
:101EA000900281120343C00090028112032B780339
:101EB000120297D0001201389002811203B19002F1
:101EC0008112032B9000651203B143AA3053AAFB81
:101ED000900280E0F5BA12197BF452AB1219A722D6
:101EE000122F8E9002811219B178001203FA0000AD
:101EF00000009002807405F075ABFF122E5D780033
:101F000012034F1226EB12013878001203BDE4F5DC
:101F1000AB122E5D7800120337C004C005C006C0A6
:101F2000071226EBA804A905AA06AB07D007D0061E
:101F3000D005D00412014578001203BD900280E064
:101F400014F0E070B3780012034F7F007ECC7D293F
:101F50007C001201DE9002821203B1780012033776
:101F60007810120297900276EEF0A3EFF07800124C
:101F700003379002781219DE90027A1219DE90026D
:101F80008A1203B17F967E007D007C00122D32E420
:101F90007B32FAF9F8C31202865006785B76968097
:101FA000071219E3785BA607900281E0F5BA121ACE
:101FB00011227B077A079002811203C900000000FA
:101FC000122F8EEB601A74017E00A803088005C3EF
:101FD00033CE33CED8F9FFADACEF5D70031B80E399
:101FE000EA601A74017E00A802088005C333CE336C
:101FF000CED8F9FFADAEEF5D70031A80E3AF037486
:1020000001A807088002C333D8FCF5AC7401A8020C
:10201000088002C333D8FCFFF5AD8FAE53AACF9032
:1020200002801219B1122E5D1226EB900285120366
:10203000B1121A26120343C31202865006121A2640
:102040001203B1900281120343C000900281120377
:102050002B7803120297D0001201389002811203EC
:10206000B190028112032B9000201203B143AA30D9
:10207000900280E0F5BA1219A722C0E0C0F0C08338
:10208000C082C0D075D008C2CFD21130CD0302219A
:102090002620CC6030CB2285CE54E554C3948040BA
:1020A0001675F003E55490248A1204131204418B30
:1020B000518A5289538063807385CE35E5547022EE
:1020C000E535B410099002DAE0F452808066E53517
:1020D000B420089002DAE0428080598535460554E4
:1020E0008052E554C39405500774462554F8A6352C
:1020F00005548040E554B4C0057546C08036E554AB
:10210000B4C2107858E630E2057546A080267546C0
:10211000A18021E554C3948040107851E475F0010A
:1021200012041F12005EF5CE800A0554E5502554B6
:10213000F8E6F5CED210D0D0D082D083D0F0D0E067
:102140003290029DECF0A3EDF0E4FD900215E070FA
:1021500034C3EF940AEE9400400612114C7401F05F
:1021600012114CE07002C21DE4FF745D2F12115277
:10217000E07004C21D80130DEDB40602D21D0FEFF6
:10218000B406E7800512114CE4F0900250E07002B2
:10219000A3E0705790024EE07002A3E0704D9002F1
:1021A00015E0701B301D187F11122E2E90024EEE7E
:1021B000F0A3EFF09002157401F0D21BC21D229023
:1021C0000215E064017036C390029EE0940A90020A
:1021D0009DE0940050277F12122E2E7C007D0C1261
:1021E00000AB900250EEF0A3EFF022900250E070AE
:1021F00004A3E064017006900215F0D21C22900244
:1022000095120438900298EDF0E4F525F52674FF58
:10221000F527F528E4F52EF52DF52CF52BF5249072
:102220000298E0FFE524C39F505990029512042FB5
:1022300075F002E524A4F58285F0831200D3F52A17
:1022400085F029D39526E5299525400685292585FC
:102250002A26C3E52A9528E52995275006852927AA
:10226000852A28E4FCFDE52E252AFFE52D3529FEEB
:10227000ED352CFDEC352B8F2E8E2D8D2CF52B0571
:1022800024809CE4852639852538F537F536852860
:102290003D85273CF53BF53A852E41852D40852C23
:1022A0003F852B3E900298AF2EAE2DAD2CAC2B125D
:1022B0002F4F229002981203B1E47BE87A03F9F8D9
:1022C0009002981211D39002A81203B19002A812A2
:1022D000110EA804A905AA06AB0790029812116A6C
:1022E0009002AC1212969002A81211151211C4900D
:1022F00002B01203B190029C12032B9002B0121193
:1023000015A804A905AA06AB079002A412116A90A9
:1023100002B41212969002AC1211159002A412038C
:10232000B19002A4120343C000C001C002C00390D8
:1023300002B412110ED003D002D001D00012013825
:102340001211C49002B81203B1E47FE87E03FDFCD1
:102350009002B01211159002B81211B42212000EA0
:1023600012315812313E122A60122FEE122D6512D0
:1023700030EED2AF751C01E51C24FE601E146036E1
:10238000146056146060240470671231211230C545
:102390001230DB1230547F04122ED7D2D8E49002D0
:1023A00023F0A3F09002BCF0A3F0122CC8E51D703E
:1023B000FC12306B8036D2D8E51D70FC1214608F91
:1023C0001C121B3F9002D9E0900078F09002D904D3
:1023D000F0122C9212306B801B122F238F1C1223B1
:1023E000F6120ECE800E120C8B122EAF751C0380CF
:1023F00003751C0112315EE51C640470030223673F
:10240000121A3A0223677F8590313AE493FC7401F3
:1024100093FD1231117F8790313A74019324CEFDE0
:10242000E49334FFFC1231117F897D647C0012310A
:10243000117F8F3018187D397C301231117F8D7DDE
:10244000397C301231117F917D397C30801F7812B8
:10245000E2FC08E2FD1231117F8D7816E2FC08E201
:10246000FD1231117F917814E2FC08E2FD12311166
:102470007F9F900276E0FCA3E0FD1231117F9D90DA
:102480000278E0FCA3E0FD1231117FA17D027C0007
:1024900012311102286AF0A3F0A3F0A3F0A3F0A375
:1024A000F0227816E2FC08E2FD90021BE0FEA3E0B9
:1024B000FF22D390022AE09400900229E0940022A7
:1024C00090022CE0940090022BE094002290004AAD
:1024D0007808E2FF08E2CFF0A3EFF022E2FE08E284
:1024E000FFE0FCA3E0FD22E29DFF18E29CFE9002CB
:1024F00080F0A3EFF022D3900265E0940090026494
:10250000E094002290025EFFEEF0A3EFF022C39071
:10251000313A7401939FE4939E22900235E0700259
:10252000A3E0705830002078149001C31224CCC36B
:102530009FEC9E5010C31224D71224FE5035122552
:102540006D40398029802C7814E2FE08E2FF781271
:10255000E2FC08E2FDC39FEC9E501AC378151224DA
:10256000D7D39432EE9400400A12256D400E122704
:102570005280028000E4900240F0A3F0227F051216
:102580002E2EEEC313FEEF13FF900240E475F00110
:102590001200BDFCD3E5F09FEC9E22780E120337AB
:1025A0009002851203B17804120337122B78900140
:1025B000B81203B190006A12032B9001B8120343C2
:1025C000C312028650037F02229001B812032B121D
:1025D00029C09001C3EEF0A3EFF09001E0E0FFA36B
:1025E000E09001F4CFF0A3EFF09001C3E0FEA3E090
:1025F000FF1212B49001E0EEF0FCA3EFF0FD7808BA
:10260000E2FE08E2FF120A249001F6EEF0A3EFF0DA
:102610007812EEF208EFF27F0522010079FE000E3B
:102620000100BE0100C80101BC0101610101B80146
:1026300001C30101D40101E00101F6FE0012FE0018
:1026400014FE0016FE0018FE0000FE000401003E0D
:10265000010042010046FE000801027601027E01EF
:10266000028601028E01024C0100E00101630102B9
:102670007201027A0101C00100D00101630102155B
:1026800001024E010250010229900257E030E10997
:102690001226C82018031226D8900257E054FDF0E5
:1026A000900220E0540FFF6027900257E0FE30E2D6
:1026B000067864A6078010EE30E31C900220E054F8
:1026C0000FC454F07864F62018061226C81226D8D3
:1026D000900257E054F3F022C2107F08122E2E9081
:1026E0000233EEF0A3EFF022C2927F217E007D0044
:1026F0007C00123025D2922212034390001AE0FF90
:10270000EFC39404500553B9EF800343B910EF6051
:1027100003B4040B85B71985B61A85B51B803AEF4B
:1027200064016004EFB4050B85EB1985EA1A85E9AD
:102730001B8026EF64026004EFB4060B85F3198555
:10274000F21A85F11B8012EF64036004EFB40709ED
:1027500085FB1985FA1A85F91BAF1BAE1AAD19ACAA
:102760001822E51D70FCE4FF121C34E4FF12078EF2
:10277000E490021EF0900220F090023FF0900235AB
:1027800012248690023DF0A3F09002421224861299
:102790002489900063F0A3F0A208300001B3502117
:1027A0007F04122E2E90022BEEF0A3EFF07F041286
:1027B0002E2E7C007D061200AB90022DEEF0A3EFD2
:1027C000F022C0E0C0F0C083C082C0D075D01053EA
:1027D000B9FDE51D640170221226EB78001203BDDD
:1027E0001219D77F01122F6C9002D9E0FF122B3AF9
:1027F00043B901D2D8751D05801DE51D640570170C
:102800001219CF780A1203BD12197BF452AB53AAE6
:10281000FB1219F9751D00D0D0D082D083D0F0D032
:10282000E03290029D1203B1E47FFF7EFFFDFC9039
:10283000029D1210F4400C90029D1203C90000FF8B
:10284000FF8030E4FF90029D1210F15026122752B3
:10285000301E167F15122E2E7C007D031200AB90C9
:102860000260EEF0A3EFF0C21E90029D1203C900B9
:1028700000271090029D12032B22E47F557E06FD57
:10288000FC780012034F12193140031219847FFFA4
:10289000121956400678C576FF800A90028012030E
:1028A0002B78C5A607E47F647E0AFDFC90008112A8
:1028B00003431219314003121984E47FFF121957A0
:1028C0004005789376FF2290028012032B7893A61E
:1028D000072290028D1203B190028A1204389002EE
:1028E0008D12032B78061202AA90028D1203B1906A
:1028F000029112128C8005C333CE33CED8F9121256
:102900001690028D1211B4900291E0F9F81212643F
:1029100090028A12042F1202EDAF27AE26AD25AC2D
:10292000247806121264229002981203B190029544
:1029300012043890029812032B780A1202AA90020D
:10294000981203B190029C12128C8005C333CE33CF
:10295000CED8F91212169002981211B490029CE08F
:10296000F9F812127090029512042F1202EDAF279F
:10297000AE26AD25AC24780A1212702290025A12AB
:1029800003C900000000E4FF122E8675ABFF122E73
:102990005D90025A1226E812013890025A1203B1D1
:1029A000E4F5AB122E5D90025A12032BC004C00551
:1029B000C006C0071226EBA804A905AA06AB07D0DB
:1029C00007D006D005D00412014590025A0203B187
:1029D00090006A120343120145122812900281EE00
:1029E000F0A3EFF07A0179CF12120A7405F0A3EE8A
:1029F000F0A3EFF07A0179C5122BB2A215301401C1
:102A0000B350157B017A0179C57D051221EE900145
:102A1000D0E544F0A3E545F0900281E0FEA3E0FF9D
:102A200022C0E0C0F0C083C082C0D075D000C0001A
:102A3000C28D758C32758AEB9002BCE475F0011280
:102A400000BDC39002BDE094149002BCE09400402D
:102A500012900223A3E0785FF6900223E4F0A3F043
:102A6000120004D000D0D0D082D083D0F0D0E03299
:102A7000E4FF12303D785AEFF67856BFFF0476092E
:102A8000800276FFE47864F67857763508F6903160
:102A90003A93FE740193FF7885A60608A607EF24F3
:102AA000CE7888F6EE34FF18F678897600087664DA
:102AB000E4122FAFF6122FAF765A75505522A907A0
:102AC000E4FEFD900257E0FC703FEF5401FB9002E2
:102AD0001FE054016B600D30020A201807EC44021D
:102AE000900257F090021FE030E006EE4410FE80A6
:102AF00004EE4401FEE930E006ED4401FD8004ED02
:102B00004410FDEE5D900220F022E4FF90021EE0F2
:102B1000701690313A93FC740193FDC37819E29DCD
:102B200018E29C401F0F801C90313A74019324CE10
:102B3000FDE49334FFFCC37819E29D18E29C400445
:102B4000EF4401FF9002D8EFF0221219D79002D97A
:102B5000E0D394034002E4F0EF1460121460171401
:102B6000601D2403702112197BF452AB800D1219E1
:102B70007BF452AB800E12197B42AB53AAFB22129C
:102B8000197B42AB43AA04229002811203B1900048
:102B900078E0900289F090028512032B90028E1249
:102BA00003B1900289E0900292F090028112032B0F
:102BB0001216D3900289E0FF1204929001AC120326
:102BC0002B2290029CE0FEA3E0FFC003C002C001E4
:102BD0001211E775F002121250D001D002D003EEAC
:102BE0008FF012010B9002981212451211E7FF901C
:102BF000029BE0B50704E4120099227E05EF540120
:102C0000FD90021EE054016D6007EFF0E490023F7A
:102C1000F07858E630E00890021EE070027E0A90DC
:102C2000023FE004F0C39E50037F002290023FEE7B
:102C3000F07F012290028E12032BC003C002C0015C
:102C400090028A1211EA12124DD001D002D0031262
:102C5000030790028A12124590028A1211EAFF902D
:102C6000028DE0B50704E41200992290029112034C
:102C70002BC003C002C00190028D1211EA12124D46
:102C8000D001D002D00312030790028D121245909A
:102C9000028D1211EAFF900290E0B50704E41200E1
:102CA00099221219D7E4FF122E861219B475BB01AE
:102CB000900069E0FF900024E04FF5B4E4F5B3F52F
:102CC000B275B110121A1C53BAFE43B901D2D8E53D
:102CD000B930E1FBE4F5BF227858E6F520A20830D0
:102CE0000001B350147F04122E2E90022BEEF0A39D
:102CF000EFF0122752A2009208A20A300201B3504C
:102D000004A202920A301305122752C213220005B0
:102D1000010802020301040105010606070108017A
:102D200009070A010B010C030D050E0A0F01100122
:102D3000110A123C13011401153C1601173C18022C
:102D400019029002861203B190028A12032B90029C
:102D500086120343D3120286400B90028A12034369
:102D6000900286800990028612034390028A120321
:102D70002B1201452243F80875CD4053CC7F43CC3C
:102D80004043CC2043CC1043CC0453CCFD43CB0276
:102D900043CB0153CBBFD2EB53E5FC43E30243F5F6
:102DA0000343900343ED032290002512032BAB074E
:102DB000AA067804120337C3EF9BFFEE9AFE7B014D
:102DC0007A00794CE4FCFD9002917408F01228C25C
:102DD0007808EEF208EFF27F05227814E2FE08E2AE
:102DE000FF7812E2FC08E2FDD39FEC9E400BED9FC2
:102DF0007817F2EC9E18F28006E47816F208F27862
:102E000016E2FF08E208CFF208EFF222E4F51D53C4
:102E1000B9FD53B9DF43CC02C2D9539FFD4387604C
:102E2000C28DEF700675BD0D75BC0112310075BE07
:102E30000CD28C20C90343870300000000227D01CF
:102E40007C00EFC3941A5020EF25E024FFF582E4C4
:102E5000342CF583E493FF7E00900225E0FCA3E090
:102E6000FD1200ABAC06AD07AE04AF05221219D7B8
:102E700075BF0F000000000000000000000000000F
:102E80000000000000D2D853B9FD43B901E5B930C4
:102E9000E1FBE4F5BF2253BA0F43BA301219A190F7
:102EA0000024E0F5B4EF700AF5B375B26175B1A80E
:102EB0008006900021121A05121A1153AAFB2290C3
:102EC0000221E0FF900220E0FE6F601430020478DF
:102ED00064A606E4FF122E2E90023BEEF0A3EFF064
:102EE000900220E0A3F022EF6003D38001C3920A96
:102EF00092027858A607900225E4F0A3745AF07F56
:102F000009122E2E900229EEF0A3EFF02290001A63
:102F1000E090313193FF900024F090001BE090315D
:102F20003193FE900069F0EF4E42D442F442E4F453
:102F300052DC229002807405F0122D9812258B909D
:102F40000280EFF0BF0205D213E0FF22122DCA1259
:102F5000300C900280E0FF2274FFF5F00200BDE02B
:102F6000FBE4FAF9F81201DE8F458E448D438C4262
:102F700022AB34AA33A932A83102028653BA0F43D6
:102F8000BA201219A1900069E0F5B4EF7009F5B309
:102F900075B2AF75B1C822900066121A052253BAF5
:102FA000FEE5B920E004E51D6005E5B930E1FBE48C
:102FB000F5BF53B9FD53B9FE1219F9E4F51D220806
:102FC000F608F608F608F6082254FBF6900257E0D9
:102FD0004408F0224404F6900257E04404F022E44E
:102FE000900280F075BE0E439F027F03FEFDFC122F
:102FF000302575BC02E4F5BFD2D953CCFD224389FC
:1030000001C28DD2A953B8FD120003900223F0A390
:10301000F0758C32758AEBD28CD2AF227F767E101F
:103020007D017C00780412034FD31202864003C254
:103030001822D218229002811203B190028174FFEB
:1030400012037EEC4D4E4F60030080EF22E4FFF54B
:1030500082F5837440FEE493F42FFFA3EEB583F66C
:10306000227F0022E4900233F0A3F07F0A122E2E7A
:10307000900231EEF0A3EFF0D210221219D77F01A7
:10308000122E86751D01121A1C43BA0143B901D2D2
:10309000D82243D50453F5FB53E5FB43E30443ED4A
:1030A00004E4900257F0D2922241001A0541001B1D
:1030B0000644001CFFFFFFFF04180000000000D3BF
:1030C000EF9DEE9C4007EF9DFFEE9CFE22C3ED9F1F
:1030D000FFEC9EFE22E4FF122E86121ED0121FA2CB
:1030E0007F01122E86121C3402296CE4FF122F6C11
:1030F000123152121DFA7F01122F6C02078E90318D
:103100003CE493FF74019390006ECFF0A3EFF022A4
:10311000438901C28CC28F120003758CFB758AED46
:103120002220C90CC2AFA807A60408A605D2AF2268
:103130002275AA3B53BAF343BA0C43B92053B9BF23
:103140002201020408102040802803200064C2DA13
:1031500053D80F43D8D0D2D8D2D922900225E4F048
:10316000A322785BE608F622122EFD0230820226A8
:1031700079FFFFFFFFFFFFFFFFFFFFFFFFFFFFFFE5
:10318000FFFFFFFFFFFFFFFFFFFFFFFFFFFFFFFF4F
:00000001FF
